:020000000FFFF0
:020001000FFFEF
:020002000FFFEE
:020003000FFFED
:020004000FFFEC
:0200050009E50B
:0200060008F2FE
:0200070008F2FD
:0200080008F2FC
:0200090008F2FB
:02000A0008F2FA
:02000B000EFCE9
:02000C000FFFE4
:02000D000FFFE3
:02000E000FFFE2
:02000F000FFFE1
:020010000FFFE0
:020011000FFFDF
:020012000FFFDE
:020013000FFFDD
:020014000AE7F9
:0200150009F3ED
:0200160008F2EE
:0200170008F2ED
:0200180008F2EC
:0200190008F2EB
:02001A0008F2EA
:02001B0009F4E6
:02001C000EFDD7
:02001D000FFFD3
:02001E000FFFD2
:02001F000FFFD1
:020020000FFFD0
:020021000FFFCF
:020022000FFFCE
:020023000FFFCD
:0200240009E5EC
:02002500036076
:02002600055083
:02002700055082
:02002800055081
:02002900055080
:02002A0005507F
:02002B000AF3D6
:02002C000EFCC8
:02002D000FFFC3
:02002E000FFFC2
:02002F000FFFC1
:020030000FFFC0
:020031000FFFBF
:020032000A853D
:020033000FFEBE
:02003400045076
:02003500064083
:02003600074081
:02003700064081
:0200380006417F
:0200390007407E
:02003A0006407E
:02003B0005506E
:02003C000FFEB5
:02003D000A8532
:02003E000FFEB3
:02003F000FFFB1
:020040000FFFB0
:020041000FFFAF
:020042000B842D
:020043000B832D
:02004400064074
:020045000B832B
:020046000BD4D9
:020047000A921B
:020048000C8327
:020049000BD4D6
:02004A000A9218
:02004B0007406C
:02004C000B8423
:02004D000C8322
:02004E000FFDA4
:02004F000FFFA1
:020050000FFFA0
:020051000FFF9F
:020052000B841D
:020053000C821D
:02005400074063
:020055000C831A
:02005600065052
:020057000B920A
:020058000C8218
:0200590006504F
:02005A000B9207
:02005B0007405C
:02005C000C8313
:02005D000C8213
:02005E000FFE93
:02005F000FFF91
:020060000FFF90
:020061000FFF8F
:020062000FFE8F
:020063000B830D
:020064000C830B
:020065000C820B
:020066000C8309
:020067000C8209
:020068000C8208
:020069000C8306
:02006A000C8206
:02006B000C8304
:02006C000C8204
:02006D0007404A
:02006E000FFE83
:02006F000FFF81
:020070000FFF80
:020071000FFF7F
:020072000FFF7E
:020073000FFE7E
:020074000BE59A
:020075000A91EE
:020076000C82FA
:02007700074040
:0200780007403F
:020079000C83F6
:02007A000C82F6
:02007B000CD4A3
:02007C0006502C
:02007D0007403A
:02007E000FFE73
:02007F000FFF71
:020080000FFF70
:020081000FFF6F
:02008200054235
:02008300064233
:02008400055025
:02008500064033
:02008600074031
:020087000B83E9
:020088000C83E7
:020089000C82E7
:02008A000CD494
:02008B0009F278
:02008C0009F376
:02008D000FFC66
:02008E000FFF62
:02008F000FFF61
:020090000FFF60
:02009100054226
:02009200064125
:020093000A73EE
:02009400074023
:02009500064023
:02009600064022
:02009700074020
:020098000BD487
:020099000AE378
:02009A0009F269
:02009B0008F269
:02009C0008F268
:02009D000EFC57
:02009E000FFF52
:02009F000FFF51
:0200A0000FFF50
:0200A100064116
:0200A2000A73DF
:0200A3000A72DF
:0200A4000A72DE
:0200A500074012
:0200A600064012
:0200A7000A73DA
:0200A800055001
:0200A900055000
:0200AA000AF357
:0200AB0008F259
:0200AC000460EE
:0200AD000FFE44
:0200AE000FFF42
:0200AF000FFF41
:0200B0000FFF40
:0200B100064205
:0200B200074005
:0200B3000A72CF
:0200B400074003
:0200B500064003
:0200B600064002
:0200B7000A72CB
:0200B8000BD566
:0200B9000550F0
:0200BA000550EF
:0200BB000550EE
:0200BC000BE552
:0200BD000FFD35
:0200BE000FFF32
:0200BF000FFF31
:0200C0000FFF30
:0200C1000642F5
:0200C2000640F6
:0200C3000A72BF
:0200C4000740F3
:0200C5000640F3
:0200C6000640F2
:0200C7000A72BB
:0200C8000550E1
:0200C9000640EF
:0200CA000BD554
:0200CB000AE445
:0200CC0009F237
:0200CD000EFC27
:0200CE000FFF22
:0200CF000FFF21
:0200D0000FFF20
:0200D1000642E5
:0200D2000641E5
:0200D3000740E4
:0200D4000640E4
:0200D5000640E3
:0200D6000640E2
:0200D7000A72AB
:0200D8000CD545
:0200D9000AE437
:0200DA0009F328
:0200DB000360C0
:0200DC000EFB19
:0200DD000FFF13
:0200DE000FFF12
:0200DF000FFF11
:0200E0000FFF10
:0200E1000FFF0F
:0200E2000FFE0F
:0200E30009749E
:0200E4000A729E
:0200E5000A729D
:0200E6000A729C
:0200E7000FFD0B
:0200E8000FFC0B
:0200E9000450C1
:0200EA000550BF
:0200EB000640CD
:0200EC000FFE05
:0200ED000FFF03
:0200EE000FFF02
:0200EF000FFF01
:0200F0000FFF00
:0200F1000FFFFF
:0200F2000FFFFE
:0200F3000FFEFE
:0200F4000FFEFD
:0200F5000FFEFC
:0200F6000FFEFB
:0200F7000FFFF9
:0200F8000FFFF8
:0200F9000642BD
:0200FA000640BE
:0200FB000641BC
:0200FC000FFEF5
:0200FD000FFFF3
:0200FE000FFFF2
:0200FF000FFFF1
:00000001FF
